{
  "_format": "hh-sol-artifact-1",
  "contractName": "EcoCoin",
  "sourceName": "contracts/EcoCoin.sol",
  "abi": [
    {
      "inputs": [],
      "stateMutability": "nonpayable",
      "type": "constructor"
    },
    {
      "inputs": [],
      "name": "ReentrancyGuardReentrantCall",
      "type": "error"
    },
    {
      "anonymous": false,
      "inputs": [
        {
          "indexed": true,
          "internalType": "address",
          "name": "owner",
          "type": "address"
        },
        {
          "indexed": true,
          "internalType": "address",
          "name": "spender",
          "type": "address"
        },
        {
          "indexed": false,
          "internalType": "uint256",
          "name": "value",
          "type": "uint256"
        }
      ],
      "name": "Approval",
      "type": "event"
    },
    {
      "anonymous": false,
      "inputs": [
        {
          "indexed": true,
          "internalType": "address",
          "name": "from",
          "type": "address"
        },
        {
          "indexed": false,
          "internalType": "uint256",
          "name": "amount",
          "type": "uint256"
        }
      ],
      "name": "Burned",
      "type": "event"
    },
    {
      "anonymous": false,
      "inputs": [
        {
          "indexed": true,
          "internalType": "address",
          "name": "to",
          "type": "address"
        },
        {
          "indexed": false,
          "internalType": "uint256",
          "name": "amount",
          "type": "uint256"
        },
        {
          "indexed": false,
          "internalType": "uint256",
          "name": "projectId",
          "type": "uint256"
        },
        {
          "indexed": false,
          "internalType": "string",
          "name": "reason",
          "type": "string"
        }
      ],
      "name": "Minted",
      "type": "event"
    },
    {
      "anonymous": false,
      "inputs": [
        {
          "indexed": true,
          "internalType": "address",
          "name": "newOracle",
          "type": "address"
        }
      ],
      "name": "OracleUpdated",
      "type": "event"
    },
    {
      "anonymous": false,
      "inputs": [
        {
          "indexed": true,
          "internalType": "address",
          "name": "user",
          "type": "address"
        },
        {
          "indexed": false,
          "internalType": "uint256",
          "name": "amount",
          "type": "uint256"
        },
        {
          "indexed": false,
          "internalType": "uint256",
          "name": "tierId",
          "type": "uint256"
        }
      ],
      "name": "Staked",
      "type": "event"
    },
    {
      "anonymous": false,
      "inputs": [
        {
          "indexed": true,
          "internalType": "address",
          "name": "from",
          "type": "address"
        },
        {
          "indexed": true,
          "internalType": "address",
          "name": "to",
          "type": "address"
        },
        {
          "indexed": false,
          "internalType": "uint256",
          "name": "value",
          "type": "uint256"
        }
      ],
      "name": "Transfer",
      "type": "event"
    },
    {
      "anonymous": false,
      "inputs": [
        {
          "indexed": true,
          "internalType": "address",
          "name": "user",
          "type": "address"
        },
        {
          "indexed": false,
          "internalType": "uint256",
          "name": "amount",
          "type": "uint256"
        },
        {
          "indexed": false,
          "internalType": "uint256",
          "name": "reward",
          "type": "uint256"
        }
      ],
      "name": "Unstaked",
      "type": "event"
    },
    {
      "inputs": [
        {
          "internalType": "address",
          "name": "",
          "type": "address"
        },
        {
          "internalType": "address",
          "name": "",
          "type": "address"
        }
      ],
      "name": "allowance",
      "outputs": [
        {
          "internalType": "uint256",
          "name": "",
          "type": "uint256"
        }
      ],
      "stateMutability": "view",
      "type": "function"
    },
    {
      "inputs": [
        {
          "internalType": "address",
          "name": "spender",
          "type": "address"
        },
        {
          "internalType": "uint256",
          "name": "amount",
          "type": "uint256"
        }
      ],
      "name": "approve",
      "outputs": [
        {
          "internalType": "bool",
          "name": "",
          "type": "bool"
        }
      ],
      "stateMutability": "nonpayable",
      "type": "function"
    },
    {
      "inputs": [
        {
          "internalType": "address",
          "name": "",
          "type": "address"
        }
      ],
      "name": "balanceOf",
      "outputs": [
        {
          "internalType": "uint256",
          "name": "",
          "type": "uint256"
        }
      ],
      "stateMutability": "view",
      "type": "function"
    },
    {
      "inputs": [
        {
          "internalType": "uint256",
          "name": "amount",
          "type": "uint256"
        }
      ],
      "name": "burn",
      "outputs": [],
      "stateMutability": "nonpayable",
      "type": "function"
    },
    {
      "inputs": [
        {
          "internalType": "uint256",
          "name": "amount",
          "type": "uint256"
        },
        {
          "internalType": "uint256",
          "name": "tierId",
          "type": "uint256"
        },
        {
          "internalType": "uint256",
          "name": "duration",
          "type": "uint256"
        }
      ],
      "name": "calculateReward",
      "outputs": [
        {
          "internalType": "uint256",
          "name": "",
          "type": "uint256"
        }
      ],
      "stateMutability": "view",
      "type": "function"
    },
    {
      "inputs": [],
      "name": "decimals",
      "outputs": [
        {
          "internalType": "uint8",
          "name": "",
          "type": "uint8"
        }
      ],
      "stateMutability": "view",
      "type": "function"
    },
    {
      "inputs": [
        {
          "internalType": "address",
          "name": "user",
          "type": "address"
        },
        {
          "internalType": "uint256",
          "name": "tierId",
          "type": "uint256"
        }
      ],
      "name": "getStakeInfo",
      "outputs": [
        {
          "components": [
            {
              "internalType": "uint256",
              "name": "amount",
              "type": "uint256"
            },
            {
              "internalType": "uint256",
              "name": "startTime",
              "type": "uint256"
            },
            {
              "internalType": "uint256",
              "name": "unlockTime",
              "type": "uint256"
            },
            {
              "internalType": "uint256",
              "name": "tierId",
              "type": "uint256"
            }
          ],
          "internalType": "struct EcoCoin.StakeInfo",
          "name": "",
          "type": "tuple"
        }
      ],
      "stateMutability": "view",
      "type": "function"
    },
    {
      "inputs": [],
      "name": "maxSupply",
      "outputs": [
        {
          "internalType": "uint256",
          "name": "",
          "type": "uint256"
        }
      ],
      "stateMutability": "view",
      "type": "function"
    },
    {
      "inputs": [
        {
          "internalType": "address",
          "name": "to",
          "type": "address"
        },
        {
          "internalType": "uint256",
          "name": "amount",
          "type": "uint256"
        },
        {
          "internalType": "uint256",
          "name": "projectId",
          "type": "uint256"
        },
        {
          "internalType": "string",
          "name": "reason",
          "type": "string"
        },
        {
          "internalType": "bytes",
          "name": "proof",
          "type": "bytes"
        }
      ],
      "name": "mint",
      "outputs": [],
      "stateMutability": "nonpayable",
      "type": "function"
    },
    {
      "inputs": [],
      "name": "name",
      "outputs": [
        {
          "internalType": "string",
          "name": "",
          "type": "string"
        }
      ],
      "stateMutability": "view",
      "type": "function"
    },
    {
      "inputs": [],
      "name": "oracle",
      "outputs": [
        {
          "internalType": "address",
          "name": "",
          "type": "address"
        }
      ],
      "stateMutability": "view",
      "type": "function"
    },
    {
      "inputs": [
        {
          "internalType": "address",
          "name": "newOracle",
          "type": "address"
        }
      ],
      "name": "setOracle",
      "outputs": [],
      "stateMutability": "nonpayable",
      "type": "function"
    },
    {
      "inputs": [
        {
          "internalType": "uint256",
          "name": "tierId",
          "type": "uint256"
        }
      ],
      "name": "stake",
      "outputs": [],
      "stateMutability": "nonpayable",
      "type": "function"
    },
    {
      "inputs": [
        {
          "internalType": "address",
          "name": "",
          "type": "address"
        },
        {
          "internalType": "uint256",
          "name": "",
          "type": "uint256"
        }
      ],
      "name": "stakes",
      "outputs": [
        {
          "internalType": "uint256",
          "name": "amount",
          "type": "uint256"
        },
        {
          "internalType": "uint256",
          "name": "startTime",
          "type": "uint256"
        },
        {
          "internalType": "uint256",
          "name": "unlockTime",
          "type": "uint256"
        },
        {
          "internalType": "uint256",
          "name": "tierId",
          "type": "uint256"
        }
      ],
      "stateMutability": "view",
      "type": "function"
    },
    {
      "inputs": [
        {
          "internalType": "uint256",
          "name": "",
          "type": "uint256"
        }
      ],
      "name": "stakingTiers",
      "outputs": [
        {
          "internalType": "uint256",
          "name": "duration",
          "type": "uint256"
        },
        {
          "internalType": "uint256",
          "name": "apy",
          "type": "uint256"
        },
        {
          "internalType": "uint256",
          "name": "multiplier",
          "type": "uint256"
        },
        {
          "internalType": "uint256",
          "name": "minAmount",
          "type": "uint256"
        }
      ],
      "stateMutability": "view",
      "type": "function"
    },
    {
      "inputs": [],
      "name": "steward",
      "outputs": [
        {
          "internalType": "address",
          "name": "",
          "type": "address"
        }
      ],
      "stateMutability": "view",
      "type": "function"
    },
    {
      "inputs": [],
      "name": "symbol",
      "outputs": [
        {
          "internalType": "string",
          "name": "",
          "type": "string"
        }
      ],
      "stateMutability": "view",
      "type": "function"
    },
    {
      "inputs": [],
      "name": "totalBurned",
      "outputs": [
        {
          "internalType": "uint256",
          "name": "",
          "type": "uint256"
        }
      ],
      "stateMutability": "view",
      "type": "function"
    },
    {
      "inputs": [],
      "name": "totalMinted",
      "outputs": [
        {
          "internalType": "uint256",
          "name": "",
          "type": "uint256"
        }
      ],
      "stateMutability": "view",
      "type": "function"
    },
    {
      "inputs": [],
      "name": "totalSupply",
      "outputs": [
        {
          "internalType": "uint256",
          "name": "",
          "type": "uint256"
        }
      ],
      "stateMutability": "view",
      "type": "function"
    },
    {
      "inputs": [
        {
          "internalType": "address",
          "name": "to",
          "type": "address"
        },
        {
          "internalType": "uint256",
          "name": "amount",
          "type": "uint256"
        }
      ],
      "name": "transfer",
      "outputs": [
        {
          "internalType": "bool",
          "name": "",
          "type": "bool"
        }
      ],
      "stateMutability": "nonpayable",
      "type": "function"
    },
    {
      "inputs": [
        {
          "internalType": "address",
          "name": "from",
          "type": "address"
        },
        {
          "internalType": "address",
          "name": "to",
          "type": "address"
        },
        {
          "internalType": "uint256",
          "name": "amount",
          "type": "uint256"
        }
      ],
      "name": "transferFrom",
      "outputs": [
        {
          "internalType": "bool",
          "name": "",
          "type": "bool"
        }
      ],
      "stateMutability": "nonpayable",
      "type": "function"
    },
    {
      "inputs": [
        {
          "internalType": "uint256",
          "name": "tierId",
          "type": "uint256"
        }
      ],
      "name": "unstake",
      "outputs": [],
      "stateMutability": "nonpayable",
      "type": "function"
    }
  ],
  "bytecode": "0x60c0604052600760809081526622b1b7a1b7b4b760c91b60a052600090620000289082620005bc565b5060408051808201909152600381526245434f60e81b6020820152600190620000529082620005bc565b506002805460ff191660129081179091556200007090600a6200079d565b62000080906312a05f20620007b5565b600355600254620000969060ff16600a6200079d565b620000a690633b9aca00620007b5565b600455348015620000b657600080fd5b5060017f9b779b17422d0df92223018b32b4d1fa46e071723d6817e2486d003becc55f0055336200012d5760405162461bcd60e51b815260206004820152601460248201527f5a65726f20616464726573732073746577617264000000000000000000000000604482015260640160405180910390fd5b600580546001600160a01b03191633908117909155600354600091825260076020908152604092839020829055600b9190915581516080810183526276a700815261032091810191909152600c918101919091526002546060820190620001999060ff16600a6200079d565b620001a7906103e8620007b5565b9052600080526009602090815281517fec8156718a8372b1db44bb411437d0870f3e3790d4a08526d024ce1b0b668f6b55818101517fec8156718a8372b1db44bb411437d0870f3e3790d4a08526d024ce1b0b668f6c556040828101517fec8156718a8372b1db44bb411437d0870f3e3790d4a08526d024ce1b0b668f6d556060928301517fec8156718a8372b1db44bb411437d0870f3e3790d4a08526d024ce1b0b668f6e55805160808101825262ed4e0081526105dc92810192909252600f908201526002549091820190620002849060ff16600a6200079d565b6200029290611388620007b5565b905260016000526009602090815281517f92e85d02570a8092d09a6e3a57665bc3815a2699a4074001bf1ccabf660f5a3655818101517f92e85d02570a8092d09a6e3a57665bc3815a2699a4074001bf1ccabf660f5a37556040828101517f92e85d02570a8092d09a6e3a57665bc3815a2699a4074001bf1ccabf660f5a38556060928301517f92e85d02570a8092d09a6e3a57665bc3815a2699a4074001bf1ccabf660f5a395580516080810182526301e1338081526109c4928101929092526014908201526002549091820190620003719060ff16600a6200079d565b6200037f90612710620007b5565b9052600260008190526009602090815282517f6cde3cea4b3a3fb2488b2808bae7556f4a405e50f65e1794383bc026131b13c355828101517f6cde3cea4b3a3fb2488b2808bae7556f4a405e50f65e1794383bc026131b13c4556040838101517f6cde3cea4b3a3fb2488b2808bae7556f4a405e50f65e1794383bc026131b13c5556060938401517f6cde3cea4b3a3fb2488b2808bae7556f4a405e50f65e1794383bc026131b13c65580516080810182526303c26700815261138892810192909252601e90820152905490918201906200045f9060ff16600a6200079d565b6200046d9061c350620007b5565b905260036000526009602090815281517fc575c31fea594a6eb97c8e9d3f9caee4c16218c6ef37e923234c0fe9014a61e7558101517fc575c31fea594a6eb97c8e9d3f9caee4c16218c6ef37e923234c0fe9014a61e85560408101517fc575c31fea594a6eb97c8e9d3f9caee4c16218c6ef37e923234c0fe9014a61e955606001517fc575c31fea594a6eb97c8e9d3f9caee4c16218c6ef37e923234c0fe9014a61ea55620007cf565b634e487b7160e01b600052604160045260246000fd5b600181811c908216806200054257607f821691505b6020821081036200056357634e487b7160e01b600052602260045260246000fd5b50919050565b601f821115620005b757600081815260208120601f850160051c81016020861015620005925750805b601f850160051c820191505b81811015620005b3578281556001016200059e565b5050505b505050565b81516001600160401b03811115620005d857620005d862000517565b620005f081620005e984546200052d565b8462000569565b602080601f8311600181146200062857600084156200060f5750858301515b600019600386901b1c1916600185901b178555620005b3565b600085815260208120601f198616915b82811015620006595788860151825594840194600190910190840162000638565b5085821015620006785787850151600019600388901b60f8161c191681555b5050505050600190811b01905550565b634e487b7160e01b600052601160045260246000fd5b600181815b80851115620006df578160001904821115620006c357620006c362000688565b80851615620006d157918102915b93841c9390800290620006a3565b509250929050565b600082620006f85750600162000797565b81620007075750600062000797565b81600181146200072057600281146200072b576200074b565b600191505062000797565b60ff8411156200073f576200073f62000688565b50506001821b62000797565b5060208310610133831016604e8410600b841016171562000770575081810a62000797565b6200077c83836200069e565b806000190482111562000793576200079362000688565b0290505b92915050565b6000620007ae60ff841683620006e7565b9392505050565b808202811582820484141762000797576200079762000688565b61165a80620007df6000396000f3fe608060405234801561001057600080fd5b506004361061014d5760003560e01c80637adbf973116100c3578063a8e62b971161007c578063a8e62b9714610351578063a9059cbb14610364578063d50267ee14610377578063d5abeb01146103ac578063d89135cd146103b5578063dd62ed3e146103bd57600080fd5b80637adbf973146102f55780637dc0d1d01461030857806395d89b411461031b578063a2309ff814610323578063a4b645eb1461032b578063a694fc3a1461033e57600080fd5b8063313ce56711610115578063313ce567146101d25780633b521efe146101f157806342966c6814610237578063584b62a11461024a578063637eea19146102aa57806370a08231146102d557600080fd5b806306fdde0314610152578063095ea7b31461017057806318160ddd1461019357806323b872dd146101aa5780632e17de78146101bd575b600080fd5b61015a6103e8565b60405161016791906112b1565b60405180910390f35b61018361017e36600461131b565b610476565b6040519015158152602001610167565b61019c60035481565b604051908152602001610167565b6101836101b8366004611345565b6104e3565b6101d06101cb366004611381565b610754565b005b6002546101df9060ff1681565b60405160ff9091168152602001610167565b6102046101ff36600461131b565b61090c565b60405161016791908151815260208083015190820152604080830151908201526060918201519181019190915260800190565b6101d0610245366004611381565b610991565b61028a61025836600461131b565b600a60209081526000928352604080842090915290825290208054600182015460028301546003909301549192909184565b604080519485526020850193909352918301526060820152608001610167565b6005546102bd906001600160a01b031681565b6040516001600160a01b039091168152602001610167565b61019c6102e336600461139a565b60076020526000908152604090205481565b6101d061030336600461139a565b610ade565b6006546102bd906001600160a01b031681565b61015a610bc6565b600b5461019c565b6101d0610339366004611405565b610bd3565b6101d061034c366004611381565b610dde565b61019c61035f366004611499565b611081565b61018361037236600461131b565b611130565b61028a610385366004611381565b60096020526000908152604090208054600182015460028301546003909301549192909184565b61019c60045481565b600c5461019c565b61019c6103cb3660046114c5565b600860209081526000928352604080842090915290825290205481565b600080546103f5906114f8565b80601f0160208091040260200160405190810160405280929190818152602001828054610421906114f8565b801561046e5780601f106104435761010080835404028352916020019161046e565b820191906000526020600020905b81548152906001019060200180831161045157829003601f168201915b505050505081565b3360008181526008602090815260408083206001600160a01b038716808552925280832085905551919290917f8c5be1e5ebec7d5bd14f71427d1e84f3dd0314c0f7b2291e5b200ac8c7c3b925906104d19086815260200190565b60405180910390a35060015b92915050565b60006001600160a01b03841661054a5760405162461bcd60e51b815260206004820152602160248201527f45524332303a207472616e736665722066726f6d207a65726f206164647265736044820152607360f81b60648201526084015b60405180910390fd5b6001600160a01b0383166105a05760405162461bcd60e51b815260206004820152601f60248201527f45524332303a207472616e7366657220746f207a65726f2061646472657373006044820152606401610541565b6001600160a01b0384166000908152600760205260409020548211156106085760405162461bcd60e51b815260206004820152601b60248201527f45524332303a20696e73756666696369656e742062616c616e636500000000006044820152606401610541565b6001600160a01b038416600090815260086020908152604080832033845290915290205482111561067b5760405162461bcd60e51b815260206004820152601d60248201527f45524332303a20696e73756666696369656e7420616c6c6f77616e63650000006044820152606401610541565b6001600160a01b0384166000908152600860209081526040808320338452909152812080548492906106ae908490611548565b90915550506001600160a01b038416600090815260076020526040812080548492906106db908490611548565b90915550506001600160a01b0383166000908152600760205260408120805484929061070890849061155b565b92505081905550826001600160a01b0316846001600160a01b03166000805160206115e58339815191528460405161074291815260200190565b60405180910390a35060019392505050565b61075c611263565b336000908152600a60209081526040808320848452909152902080546107b55760405162461bcd60e51b815260206004820152600e60248201526d139bc81cdd185ad948199bdd5b9960921b6044820152606401610541565b80600201544210156107f85760405162461bcd60e51b815260206004820152600c60248201526b14dd1a5b1b081b1bd8dad95960a21b6044820152606401610541565b600081600101544261080a9190611548565b905060006108218360000154846003015484611081565b90506000818460000154610835919061155b565b8454336000818152600a602090815260408083208b84528252808320838155600181018490556002810184905560030183905592825260079052908120805493945091928492919061088890849061155b565b9091555050604080518281526020810185905233917f7fc4727e062e336010f2c282598ef5f14facb3de68cf8195c2f23e1454b2b74e910160405180910390a2604051828152339030906000805160206115e58339815191529060200160405180910390a35050505050610909600160008051602061160583398151915255565b50565b6109376040518060800160405280600081526020016000815260200160008152602001600081525090565b506001600160a01b0382166000908152600a60209081526040808320848452825291829020825160808101845281548152600182015492810192909252600281015492820192909252600390910154606082015292915050565b600081116109d45760405162461bcd60e51b815260206004820152601060248201526f109d5c9b881e995c9bc8185b5bdd5b9d60821b6044820152606401610541565b33600090815260076020526040902054811115610a2a5760405162461bcd60e51b8152602060048201526014602482015273496e73756666696369656e742062616c616e636560601b6044820152606401610541565b3360009081526007602052604081208054839290610a49908490611548565b925050819055508060036000828254610a629190611548565b9250508190555080600c6000828254610a7b919061155b565b909155505060405181815233907f696de425f79f4a40bc6d2122ca50507f0efbeabbff86a84871b7196ab8ea8df79060200160405180910390a260405181815260009033906000805160206115e58339815191529060200160405180910390a350565b6005546001600160a01b03163314610b265760405162461bcd60e51b815260206004820152600b60248201526a139bdd081cdd195dd85c9960aa1b6044820152606401610541565b6001600160a01b038116610b7c5760405162461bcd60e51b815260206004820152601d60248201527f4f7261636c652063616e6e6f74206265207a65726f20616464726573730000006044820152606401610541565b600680546001600160a01b0319166001600160a01b0383169081179091556040517f3df77beb5db05fcdd70a30fc8adf3f83f9501b68579455adbd100b818094039490600090a250565b600180546103f5906114f8565b6006546001600160a01b03163314610c1a5760405162461bcd60e51b815260206004820152600a6024820152694e6f74206f7261636c6560b01b6044820152606401610541565b6001600160a01b038716610c675760405162461bcd60e51b81526020600482015260146024820152734d696e7420746f207a65726f206164647265737360601b6044820152606401610541565b60008611610caa5760405162461bcd60e51b815260206004820152601060248201526f135a5b9d081e995c9bc8185b5bdd5b9d60821b6044820152606401610541565b60045486600354610cbb919061155b565b1115610cfe5760405162461bcd60e51b815260206004820152601260248201527145786365656473206d617820737570706c7960701b6044820152606401610541565b6001600160a01b03871660009081526007602052604081208054889290610d2690849061155b565b925050819055508560036000828254610d3f919061155b565b9250508190555085600b6000828254610d58919061155b565b92505081905550866001600160a01b03167ff2cb5e52049d127ad1c335f1cc25f2fdbc911bec1beb2611f4c1e8b1c274d4b487878787604051610d9e949392919061156e565b60405180910390a26040518681526001600160a01b038816906000906000805160206115e58339815191529060200160405180910390a350505050505050565b610de6611263565b60008181526009602090815260409182902082516080810184528154815260018201549281019290925260028101549282019290925260039091015460608201819052610e645760405162461bcd60e51b815260206004820152600c60248201526b24b73b30b634b2103a34b2b960a11b6044820152606401610541565b6000816060015111610eae5760405162461bcd60e51b8152602060048201526013602482015272151a595c88191bd95cc81b9bdd08195e1a5cdd606a1b6044820152606401610541565b336000908152600a602090815260408083208584529091529020805415610f175760405162461bcd60e51b815260206004820152601b60248201527f416c7265616479207374616b656420696e2074686973207469657200000000006044820152606401610541565b606082015133600090815260076020526040902054811115610f7b5760405162461bcd60e51b815260206004820181905260248201527f496e73756666696369656e742062616c616e636520666f72207374616b696e676044820152606401610541565b3360009081526007602052604081208054839290610f9a908490611548565b909155505060408051608081018252828152426020820181905285519192830191610fc49161155b565b81526020908101869052336000818152600a83526040808220898352845290819020845181558484015160018201558482015160028201556060909401516003909401939093558251848152918201879052917f1449c6dd7851abc30abf37f57715f492010519147cc2652fbc38202c18a6ee90910160405180910390a2604051818152309033906000805160206115e58339815191529060200160405180910390a3505050610909600160008051602061160583398151915255565b600082815260096020908152604080832081516080810183528154808252600183015494820194909452600282015492810192909252600301546060820152906110fc5760405162461bcd60e51b815260206004820152600c60248201526b24b73b30b634b2103a34b2b960a11b6044820152606401610541565b64496cebb8008382602001518761111391906115ab565b61111d91906115ab565b61112791906115c2565b95945050505050565b60006001600160a01b0383166111885760405162461bcd60e51b815260206004820152601f60248201527f45524332303a207472616e7366657220746f207a65726f2061646472657373006044820152606401610541565b336000908152600760205260409020548211156111e75760405162461bcd60e51b815260206004820152601b60248201527f45524332303a20696e73756666696369656e742062616c616e636500000000006044820152606401610541565b3360009081526007602052604081208054849290611206908490611548565b90915550506001600160a01b0383166000908152600760205260408120805484929061123390849061155b565b90915550506040518281526001600160a01b0384169033906000805160206115e5833981519152906020016104d1565b61126b61127f565b600260008051602061160583398151915255565b600080516020611605833981519152546002036112af57604051633ee5aeb560e01b815260040160405180910390fd5b565b600060208083528351808285015260005b818110156112de578581018301518582016040015282016112c2565b506000604082860101526040601f19601f8301168501019250505092915050565b80356001600160a01b038116811461131657600080fd5b919050565b6000806040838503121561132e57600080fd5b611337836112ff565b946020939093013593505050565b60008060006060848603121561135a57600080fd5b611363846112ff565b9250611371602085016112ff565b9150604084013590509250925092565b60006020828403121561139357600080fd5b5035919050565b6000602082840312156113ac57600080fd5b6113b5826112ff565b9392505050565b60008083601f8401126113ce57600080fd5b50813567ffffffffffffffff8111156113e657600080fd5b6020830191508360208285010111156113fe57600080fd5b9250929050565b600080600080600080600060a0888a03121561142057600080fd5b611429886112ff565b96506020880135955060408801359450606088013567ffffffffffffffff8082111561145457600080fd5b6114608b838c016113bc565b909650945060808a013591508082111561147957600080fd5b506114868a828b016113bc565b989b979a50959850939692959293505050565b6000806000606084860312156114ae57600080fd5b505081359360208301359350604090920135919050565b600080604083850312156114d857600080fd5b6114e1836112ff565b91506114ef602084016112ff565b90509250929050565b600181811c9082168061150c57607f821691505b60208210810361152c57634e487b7160e01b600052602260045260246000fd5b50919050565b634e487b7160e01b600052601160045260246000fd5b818103818111156104dd576104dd611532565b808201808211156104dd576104dd611532565b84815283602082015260606040820152816060820152818360808301376000818301608090810191909152601f909201601f191601019392505050565b80820281158282048414176104dd576104dd611532565b6000826115df57634e487b7160e01b600052601260045260246000fd5b50049056feddf252ad1be2c89b69c2b068fc378daa952ba7f163c4a11628f55a4df523b3ef9b779b17422d0df92223018b32b4d1fa46e071723d6817e2486d003becc55f00a2646970667358221220851c7105fdbf018d6677cc697ddccf33ee99c444009d2ddbd17c4a6a5ba7869364736f6c63430008140033",
  "linkReferences": {},
  "deployedLinkReferences": {}
}